:020000040800F2
:10000000005000206D1100081D1200087D3C000802
:10001000A93C0008D53C0008013D00080000000094
:100020000000000000000000000000001D12000899
:100030001D120008000000001D1200084D4F0008AE
:100040001D120008655000081D1200081D1200084E
:100050001D1200081D1200081D1200081D120008C4
:100060001D1200081D1200081D120008F5130008DB
:100070001D1200081D120008B95300081D120008C7
:100080001D1200081D1200081D1200081D12000894
:100090001D1200081D1200081D1200081D12000884
:1000A0001D1200081D1200081D120008C942000898
:1000B000957D00081D1200081D1200081D12000881
:1000C0001D1200081D1200081D1200081D12000854
:1000D0001D1200081D1200081D1200081D12000844
:1000E0001D1200081D1200081D120008000000006B
:1000F0000000000000000000000000000000000000
:0C01000000000000000000005FF808F1A3
:1001100010B5054C237833B9044810B10448AFF347
:1001200000800121217010BD50030020000000005C
:1001300064E8000808B5064B1BB106480649AFF352
:1001400000800648016811B1054A02B1904708BD18
:100150000000000064E80008540300205003002061
:100160000000000081F0004102E000BF83F0004386
:1001700030B54FEA41044FEA430594EA050F08BF42
:1001800090EA020F1FBF54EA000C55EA020C7FEA06
:10019000645C7FEA655C00F0E2804FEA5454D4EB83
:1001A0005555B8BF6D420CDD2C4480EA020281EA4D
:1001B000030382EA000083EA010180EA020281EA85
:1001C0000303362D88BF30BD11F0004F4FEA0131D7
:1001D0004FF4801C4CEA113102D0404261EB4101E6
:1001E00013F0004F4FEA03334CEA133302D052426C
:1001F00063EB430394EA050F00F0A780A4F1010428
:10020000D5F1200E0DDB02FA0EFC22FA05F2801861
:1002100041F1000103FA0EF2801843FA05F3594147
:100220000EE0A5F120050EF1200E012A03FA0EFCC6
:1002300028BF4CF0020C43FA05F3C01851EBE371F0
:1002400001F0004507D54FF0000EDCF1000C7EEB0D
:1002500000006EEB0101B1F5801F1BD3B1F5001F4B
:100260000CD349085FEA30004FEA3C0C04F101046A
:100270004FEA445212F5800F80F09A80BCF1004F93
:1002800008BF5FEA500C50F1000041EB045141EA15
:10029000050130BD5FEA4C0C404141EB010111F416
:1002A000801FA4F10104E9D191F0000F04BF0146C1
:1002B0000020B1FA81F308BF2033A3F10B03B3F19F
:1002C00020020CDA0C3208DD02F1140CC2F10C022F
:1002D00001FA0CF021FA02F10CE002F11402D8BF8D
:1002E000C2F1200C01FA02F120FA0CFCDCBF41EA59
:1002F0000C019040E41AA2BF01EB0451294330BD28
:100300006FEA04041F3C1CDA0C340EDC04F1140404
:10031000C4F1200220FA04F001FA02F340EA0300DB
:1003200021FA04F345EA030130BDC4F10C04C4F121
:10033000200220FA02F001FA04F340EA0300294601
:1003400030BD21FA04F0294630BD94F0000F83F44B
:10035000801306BF81F480110134013D4EE77FEA2E
:10036000645C18BF7FEA655C29D094EA050F08BF7A
:1003700090EA020F05D054EA000C04BF194610465B
:1003800030BD91EA030F1EBF0021002030BD5FEA9F
:10039000545C05D14000494128BF41F0004130BDC7
:1003A00014F580043CBF01F5801130BD01F000451B
:1003B00045F0FE4141F470014FF0000030BD7FEA8E
:1003C000645C1ABF194610467FEA655C1CBF0B4689
:1003D000024650EA013406BF52EA033591EA030FA0
:1003E00041F4002130BD00BF90F0000F04BF002198
:1003F000704730B54FF4806404F132044FF00005CB
:100400004FF0000150E700BF90F0000F04BF002143
:10041000704730B54FF4806404F1320410F00045A9
:1004200048BF40424FF000013EE700BF42004FEAA4
:10043000E2014FEA31014FEA02701FBF12F07F4321
:1004400093F07F4F81F06051704792F0000F14BF1E
:1004500093F07F4F704730B54FF4607401F0004562
:1004600021F0004120E700BF50EA010208BF7047B9
:1004700030B54FF000050AE050EA010208BF7047AE
:1004800030B511F0004502D5404261EB41014FF417
:10049000806404F132045FEA915C3FF4DCAE4FF01B
:1004A00003025FEADC0C18BF03325FEADC0C18BF02
:1004B000033202EBDC02C2F1200300FA03FC20FA53
:1004C00002F001FA03FE40EA0E0021FA02F11444A0
:1004D000C1E600BF70B54FF0FF0C4CF4E06C1CEAB5
:1004E00011541DBF1CEA135594EA0C0F95EA0C0F2A
:1004F00000F0DEF82C4481EA030621EA4C5123EA9D
:100500004C5350EA013518BF52EA033541F48011CB
:1005100043F4801338D0A0FB02CE4FF00005E1FB7E
:1005200002E506F00042E0FB03E54FF00006E1FBC8
:1005300003569CF0000F18BF4EF0010EA4F1FF040B
:10054000B6F5007F64F5407404D25FEA4E0E6D414B
:1005500046EB060642EAC62141EA55514FEAC5205C
:1005600040EA5E504FEACE2EB4F1FD0C88BFBCF5D8
:10057000E06F1ED8BEF1004F08BF5FEA500E50F189
:10058000000041EB045170BD06F0004646EA01014F
:1005900040EA020081EA0301B4EB5C04C2BFD4EB81
:1005A0000C0541EA045170BD41F480114FF0000E7A
:1005B000013C00F3AB8014F1360FDEBF002001F0E8
:1005C000004170BDC4F10004203C35DA0C341BDC62
:1005D00004F11404C4F1200500FA05F320FA04F034
:1005E00001FA05F240EA020001F0004221F0004168
:1005F00010EBD37021FA04F642EB06015EEA430EDB
:1006000008BF20EAD37070BDC4F10C04C4F120050A
:1006100000FA04F320FA05F001FA04F240EA0200BD
:1006200001F0004110EBD37041F100015EEA430E8E
:1006300008BF20EAD37070BDC4F1200500FA05F2AE
:100640004EEA020E20FA04F301FA05F243EA02032D
:1006500021FA04F001F0004121FA04F220EA02003C
:1006600000EBD3705EEA430E08BF20EAD37070BD82
:1006700094F0000F0FD101F00046400041EB010162
:1006800011F4801F08BF013CF7D041EA060195F044
:10069000000F18BF704703F00046520043EB0303FE
:1006A00013F4801F08BF013DF7D043EA06037047EB
:1006B00094EA0C0F0CEA135518BF95EA0C0F0CD0F6
:1006C00050EA410618BF52EA4306D1D181EA03013C
:1006D00001F000414FF0000070BD50EA410606BF36
:1006E0001046194652EA430619D094EA0C0F02D17B
:1006F00050EA013613D195EA0C0F05D152EA0336C0
:100700001CBF104619460AD181EA030101F00041DD
:1007100041F0FE4141F470014FF0000070BD41F026
:10072000FE4141F4780170BD70B54FF0FF0C4CF400
:10073000E06C1CEA11541DBF1CEA135594EA0C0F1F
:1007400095EA0C0F00F0A7F8A4EB050481EA030E6C
:1007500052EA03354FEA013100F088804FEA033353
:100760004FF0805545EA131343EA12634FEA022221
:1007700045EA111545EA10654FEA00260EF00041E2
:100780009D4208BF964244F1FD0404F5407402D234
:100790005B084FEA3202B61A65EB03055B084FEAC5
:1007A00032024FF480104FF4002CB6EB020E75EBC2
:1007B000030E22BFB61A754640EA0C005B084FEAEA
:1007C0003202B6EB020E75EB030E22BFB61A754667
:1007D00040EA5C005B084FEA3202B6EB020E75EBB2
:1007E000030E22BFB61A754640EA9C005B084FEA2A
:1007F0003202B6EB020E75EB030E22BFB61A754637
:1008000040EADC0055EA060E18D04FEA051545EA25
:1008100016754FEA06164FEAC30343EA52734FEACE
:10082000C2025FEA1C1CC0D111F4801F0BD141EA47
:1008300000014FF000004FF0004CB6E711F4801FAC
:1008400004BF01430020B4F1FD0C88BFBCF5E06F8C
:100850003FF6AFAEB5EB030C04BFB6EB020C5FEA9C
:10086000500C50F1000041EB045170BD0EF0004EF1
:100870004EEA113114EB5C04C2BFD4EB0C0541EA23
:10088000045170BD41F480114FF0000E013C90E620
:1008900045EA060E8DE60CEA135594EA0C0F08BFE4
:1008A00095EA0C0F3FF43BAF94EA0C0F0AD150EAE3
:1008B00001347FF434AF95EA0C0F7FF425AF104676
:1008C00019462CE795EA0C0F06D152EA03353FF49E
:1008D000FDAE1046194622E750EA410618BF52EA1B
:1008E00043067FF4C5AE50EA41047FF40DAF52EAEF
:1008F00043057FF4EBAE12E74FF0FF3C06E000BF8C
:100900004FF0010C02E000BF4FF0010C4DF804CD98
:100910004FEA410C7FEA6C5C4FEA430C18BF7FEA58
:100920006C5C1BD001B050EA410C0CBF52EA430C86
:1009300091EA030F02BF90EA020F0020704710F106
:10094000000F91EA030F58BF994208BF90422CBF95
:10095000D8176FEAE37040F0010070474FEA410C8E
:100960007FEA6C5C02D150EA013C07D14FEA430CAC
:100970007FEA6C5CD6D152EA033CD3D05DF8040B1D
:10098000704700BF8446104662468C46194663464F
:1009900000E000BF01B5FFF7B7FF002848BF10F126
:1009A000000F01BD4DF808EDFFF7F4FF0CBF01206B
:1009B00000205DF808FB00BF4DF808EDFFF7EAFFE7
:1009C00034BF012000205DF808FB00BF4DF808EDA2
:1009D000FFF7E0FF94BF012000205DF808FB00BF97
:1009E0004DF808EDFFF7CEFF94BF012000205DF821
:1009F00008FB00BF4DF808EDFFF7C4FF34BF01202E
:100A000000205DF808FB00BF4FEA4102B2F1E0436D
:100A100024BFB3F5001CDCF1FE5C0DD901F0004CE5
:100A20004FEAC0024CEA5070B2F1004F40EB830035
:100A300008BF20F00100704711F0804F21D113F161
:100A40003872BCBF01F00040704741F480114FEA9A
:100A50005252C2F11802C2F1200C10FA0CF320FA23
:100A600002F018BF40F001004FEAC1234FEAD32340
:100A700003FA0CFC40EA0C0023FA02F34FEA4303AA
:100A8000CCE77FEA625307D150EA01331EBF4FF033
:100A9000FE4040F44000704701F0004040F0FE404E
:100AA00040F40000704700BF80F0004002E000BF4B
:100AB00081F0004142001FBF5FEA410392EA030F49
:100AC0007FEA226C7FEA236C6AD04FEA1262D2EB93
:100AD0001363C1BFD218414048404140B8BF5B4298
:100AE000192B88BF704710F0004F40F4000020F031
:100AF0007F4018BF404211F0004F41F4000121F047
:100B00007F4118BF494292EA030F3FD0A2F1010290
:100B100041FA03FC10EB0C00C3F1200301FA03F1CE
:100B200000F0004302D5494260EB4000B0F5000FF1
:100B300013D3B0F1807F06D340084FEA310102F1B0
:100B40000102FE2A51D2B1F1004F40EBC25008BF62
:100B500020F0010040EA03007047490040EB00002C
:100B600010F4000FA2F10102EDD1B0FA80FCACF15B
:100B7000080CB2EB0C0200FA0CF0AABF00EBC2505A
:100B800052421843BCBFD0401843704792F0000F48
:100B900081F4000106BF80F400000132013BB5E79B
:100BA0004FEA41037FEA226C18BF7FEA236C21D011
:100BB00092EA030F04D092F0000F08BF0846704776
:100BC00090EA010F1CBF0020704712F07F4F04D144
:100BD000400028BF40F00040704712F100723CBF57
:100BE00000F50000704700F0004343F0FE4040F481
:100BF000000070477FEA226216BF08467FEA23633F
:100C00000146420206BF5FEA412390EA010F40F429
:100C1000800070474FF0000304E000BF10F0004375
:100C200048BF40425FEA000C08BF704743F096435C
:100C300001464FF000001CE050EA010208BF704777
:100C40004FF000030AE000BF50EA010208BF7047FE
:100C500011F0004302D5404261EB41015FEA010C13
:100C600002BF84460146002043F0B64308BFA3F10B
:100C70008053A3F50003BCFA8CF2083AA3EBC253ED
:100C800010DB01FA02FC634400FA02FCC2F120020C
:100C9000BCF1004F20FA02F243EB020008BF20F043
:100CA0000100704702F1200201FA02FCC2F12002A9
:100CB00050EA4C0021FA02F243EB020008BF20EA9E
:100CC000DC7070474FF0FF0C1CEAD0521EBF1CEACC
:100CD000D15392EA0C0F93EA0C0F6FD01A4480EABA
:100CE000010C400218BF5FEA41211ED04FF00063A3
:100CF00043EA501043EA5111A0FB01310CF00040CF
:100D0000B1F5000F3EBF490041EAD3715B0040EAF4
:100D1000010062F17F02FD2A1DD8B3F1004F40EBC4
:100D2000C25008BF20F00100704790F0000F0CF097
:100D3000004C08BF49024CEA502040EA51207F3A5B
:100D4000C2BFD2F1FF0340EAC250704740F4000036
:100D50004FF00003013A5DDC12F1190FDCBF00F027
:100D600000407047C2F10002410021FA02F1C2F1D5
:100D7000200200FA02FC5FEA310040F1000053EA71
:100D80004C0308BF20EADC70704792F0000F00F0BF
:100D9000004C02BF400010F4000F013AF9D040EAC5
:100DA0000C0093F0000F01F0004C02BF490011F459
:100DB000000F013BF9D041EA0C018FE70CEAD15357
:100DC00092EA0C0F18BF93EA0C0F0AD030F0004CD7
:100DD00018BF31F0004CD8D180EA010000F000408B
:100DE000704790F0000F17BF90F0004F084691F049
:100DF000000F91F0004F14D092EA0C0F01D1420283
:100E00000FD193EA0C0F03D14B0218BF084608D14B
:100E100080EA010000F0004040F0FE4040F4000095
:100E2000704740F0FE4040F4400070474FF0FF0C28
:100E30001CEAD0521EBF1CEAD15392EA0C0F93EA6F
:100E40000C0F69D0A2EB030280EA010C49024FEAC1
:100E5000402037D04FF0805343EA111143EA10137A
:100E60000CF000408B4238BF5B0042F17D024FF432
:100E7000000C8B4224BF5B1A40EA0C00B3EB510F0D
:100E800024BFA3EB510340EA5C00B3EB910F24BFF6
:100E9000A3EB910340EA9C00B3EBD10F24BFA3EB7B
:100EA000D10340EADC001B0118BF5FEA1C1CE0D143
:100EB000FD2A3FF650AF8B4240EBC25008BF20F0F6
:100EC000010070470CF0004C4CEA50207F32C2BF4A
:100ED000D2F1FF0340EAC250704740F400004FF0E7
:100EE0000003013A37E792F0000F00F0004C02BF18
:100EF000400010F4000F013AF9D040EA0C0093F0E2
:100F0000000F01F0004C02BF490011F4000F013B3B
:100F1000F9D041EA0C0195E70CEAD15392EA0C0FA3
:100F200008D142027FF47DAF93EA0C0F7FF470AFDB
:100F3000084676E793EA0C0F04D14B023FF44CAF1E
:100F400008466EE730F0004C18BF31F0004CCAD1B3
:100F500030F000427FF45CAF31F000437FF43CAFEF
:100F60005FE700BF4FF0FF3C06E000BF4FF0010C11
:100F700002E000BF4FF0010C4DF804CD4FEA4002F3
:100F80004FEA41037FEA226C18BF7FEA236C11D03D
:100F900001B052EA530C18BF90EA010F58BFB2EBF0
:100FA000030088BFC81738BF6FEAE17018BF40F070
:100FB000010070477FEA226C02D15FEA402C05D124
:100FC0007FEA236CE4D15FEA412CE1D05DF8040BA9
:100FD000704700BF844608466146FFE70FB5FFF73C
:100FE000C9FF002848BF10F1000F0FBD4DF808EDF4
:100FF000FFF7F4FF0CBF012000205DF808FB00BFE5
:101000004DF808EDFFF7EAFF34BF012000205DF83E
:1010100008FB00BF4DF808EDFFF7E0FF94BF01208B
:1010200000205DF808FB00BF4DF808EDFFF7D2FF88
:1010300094BF012000205DF808FB00BF4DF808EDCB
:10104000FFF7C8FF34BF012000205DF808FB00BF98
:101050004FEA4002B2F1FE4F0FD34FF09E03B3EBC5
:1010600012620DD94FEA002343F0004310F0004F05
:1010700023FA02F018BF404270474FF0000070475B
:1010800012F1610F01D1420205D110F0004008BFFA
:101090006FF0004070474FF00000704742000ED2E2
:1010A000B2F1FE4F0BD34FF09E03B3EB126209D4A3
:1010B0004FEA002343F0004323FA02F070474FF059
:1010C0000000704712F1610F01D1420202D14FF0CE
:1010D000FF3070474FF00000704700BF4FEA4102F9
:1010E00012F5001215D211D56FF47873B3EB62527A
:1010F00012D94FEAC12343F0004343EA505311F0A1
:10110000004F23FA02F018BF404270474FF0000032
:10111000704750EA013005D111F0004008BF6FF070
:10112000004070474FF00000704700BF4A0011D2E6
:1011300012F5001211D20DD56FF47873B3EB625231
:101140000ED44FEAC12343F0004343EA505323FA3D
:1011500002F070474FF00000704750EA013002D1B2
:101160004FF0FF3070474FF0000070471D481E4998
:10117000026800608A4200F01F80002100F004B87D
:101180001A4B5B584350043119481A4B42189A4283
:10119000FFF4F6AF184A00F003B8002342F8043B0E
:1011A000164B9A42FFF4F9AF06F068FC08F040F9DC
:1011B00002F0C8FCFFF7FEBF114E12483060124823
:1011C000016821F070610160410201600F4C18203C
:1011D00020600F490F4808600F48D0F800D04068E1
:1011E00000470000F04F0020EFBEADDE84E80008AD
:1011F0000000002050030020500300204022002067
:10120000181002400900000004000140140C0140C5
:10121000000C01404434434400F0FF1FFFF7FEBFC1
:1012200010B5044604F0E8F9204604F001FA00285D
:10123000FAD1204604F016FA204604F02FFA0028CE
:10124000FAD110BD024B0349C2031A60086070470F
:10125000F8040020E0030020204B2DE9F041B3F911
:1012600000201F4C1F4D216835F812001E4F4618F4
:1012700026601E4E3C6836F81230181938601C4B38
:101280001C4F196837F81240601818601A4B1888FC
:10129000002304B261004D198E19CF19194601EBD4
:1012A000040C023B944513DD35F8038005EB030C79
:1012B000ACF8028036F8038006EB030CACF8028031
:1012C00037F8038007EB030CACF802800139E6E73E
:1012D000421C09480280BDE8F08100BF7404002070
:1012E000CC03002076040020D4030020FC0400205E
:1012F0007C050020E40300206C040020274B2848D4
:10130000198800882DE9F0430CB2264D264E274F50
:1013100062000FFA80FC002355199619D7190CF1B9
:10132000FF3C1A4602EB04080233E04513DA35F8B5
:10133000039005EB030828F8029C36F8039006EBAF
:10134000030828F8029C37F8039007EB030828F8F5
:10135000029C0132E6E7013883B2114A8B421380C6
:101360000E4901D100200880B1F90030104A0D4922
:1013700031F813001168081A10600B490D4A31F852
:1013800013001168081A106008490B4A31F813005D
:101390001368191A1160BDE8F08300BF74040020BF
:1013A0006C04002076040020FC040020E4030020EC
:1013B000CC030020D40300207C0500200B4B0C48FC
:1013C0001A68B0F90030C2F38F1211B2581C814272
:1013D00003DD3F2B01DCFFF73FBF013B994204DAFD
:1013E00012B2012A01DDFFF789BF7047E003002038
:1013F0006C0400202DE9F84372B606F0BDFB0446EC
:1014000062B64FF00003C4F20203186810F0020F36
:1014100014D040F2D032C2F200021068156840F2D7
:10142000A433C2F200031E8A998A7118A5EBC13158
:10143000A0EBA110106003F1100311E040F268422C
:10144000C2F200021068156840F2A433C2F2000331
:101450001E8899887118A5EBC131A0EBA11010600E
:101460004FF00002C4F202024FF00701516040F653
:10147000CC70C2F200000278032A00F0898140F2A9
:10148000FC61C2F200010868B8B140F2FC62C2F22D
:10149000000211688C4240F2FC60C2F20000016858
:1014A0002EBFC1EB0401C943611840F2D832C2F229
:1014B00000021068814240F26B8140F27445C2F232
:1014C0000005B5F90020B3F80290DE88B14440F27F
:1014D0007640C2F2000020F81290B3F808C09F894D
:1014E000BC4440F2FC41C2F2000121F812C05E8906
:1014F000DB89F61840F2E437C2F2000727F81260E1
:1015000002F1010240F26C43C2F20003B3F9003071
:1015100092FBF3F803FB182292B22A8012B240F237
:10152000CC38C2F2000830F81200D8F80050281A5F
:101530004844C8F8000040F2D435C2F2000531F842
:1015400012802968C8EB010808EB0C01296040F201
:101550007C55C2F2000537F812702A68D21B921926
:101560002A600D18AE18B6FBF3F35A2B40F2108127
:1015700040F63873C2F200031B78002B00F008819C
:1015800040F63873C2F200031B78022B00F0008192
:1015900040F29836C2F2000633689C4240F2983618
:1015A000C2F2000636682EBFC6EB0406F643A61943
:1015B00040F27043C2F200031B689E4240F2E88092
:1015C00040F2A033C2F200031B786BB95318B0EBA2
:1015D000530F17D340F2A031C2F200014FF00103C4
:1015E0000B704FF00602CCE05318B0EB530F09D844
:1015F00040F2A030C2F200004FF0000101704FF045
:101600000302BEE040F2F643C2F200031B786BB95E
:101610001018B1EB500F1ED340F2F640C2F200009A
:101620004FF0010202704FF00402AAE01018B1EB73
:10163000500F10D840F2F641C2F200014FF0000204
:101640000A7040F68C73C2F20003186801F0C1FC06
:101650004FF0010295E040F26441C2F200010B78C4
:101660006BB9B2EB550FC0F0938040F26441C2F207
:1016700000014FF001030B704FF0020281E0B2EB6A
:10168000550F00F2858040F26440C2F200004FF036
:10169000000202704FF0050273E040F29035C2F292
:1016A0000005296840F2F843C2F200031D6818687B
:1016B0008E42B8BF3146C5EBC13600EBE60119607A
:1016C0001B684FEAE33040F2E035C2F200052860C3
:1016D00040F62E76C2F20006327040F2FC61C2F291
:1016E00000014FF000020A60286829682A6840F269
:1016F0006C43C2F20003B3F9003003EB430603EB83
:10170000860303F11A0303EBD3734FEA6303C3EBBE
:10171000500040F2C833C2F20003B3F90030B1FB0D
:10172000F3F1401A43F2F541C0F6000106F0D2FA97
:1017300040F29832C2F200021460FFF73FFE2868C0
:1017400000EB40034FEA930140F27042C2F2000204
:10175000116040F26840C2F20000016840F2DC33E0
:10176000C2F200031A68914212DD40F26840C2F2F0
:101770000000016840F2DC33C2F200031960BDE8EA
:10178000F88340F28050C2F2000001688E4284DC8F
:10179000BDE8F883000000002DE9F04140F230631D
:1017A000C2F20003D3F830801F6CDE6B5D6B9C6B64
:1017B00040464FF07E51FFF741FC48B94046FEF7E6
:1017C00035FE67A3D3E90023FFF7F6F818B906E062
:1017D0004FF07E5803E04CF6CD48C3F64C583846DF
:1017E0004FF00001C4F2F011FFF728FC48B9384669
:1017F000FEF71CFE5CA3D3E90023FFF7DDF828B950
:1018000008E04FF00007C4F2F01703E04CF6CD47B4
:10181000C3F6CC5730464FF00001C4F2C821FFF7A1
:101820000DFC30B930464FF00001FFF7E9FB38B14D
:1018300004E04FF00006C4F2C82601E04FF00006B5
:1018400028464FF00001C4F2FA31FFF7F7FB40B928
:1018500028464FF00001C4F2A011FFF7D1FB28B9D0
:1018600008E04FF00005C4F2FA3503E04FF0000540
:10187000C4F2A01520464FF48041C4F29C61FFF7EA
:10188000DDFB40B920464FF00001C4F27A41FFF77A
:10189000B7FB28B908E04FF48044C4F29C6403E02D
:1018A0004FF00004C4F27A44404649F69A11C4F25B
:1018B0004B21FFF707FA4FF00001C4F27A41FFF71E
:1018C000B5FA014643F26020C3F25320FFF7AEFAA7
:1018D00040F2C431C2F200010860384645F2555169
:1018E000C3F6D571FFF7EEF901464FF00000C4F2E0
:1018F000C820FFF79BFAFFF7ABFB40F2C832C2F2F9
:101900000002108030463146FFF7D4F8FFF7A0FB05
:1019100040F2D833C2F20003186028462946FFF788
:10192000C9F8FFF795FB40F28051C2F20001086050
:1019300020462146FFF7BEF8FFF78AFB40F29032BF
:10194000C2F20002106040F23060C2F20000C0F843
:1019500030800764C66345638463BDE8F08100BFDF
:101960009A9999999999A93F9A9999999999B93F69
:101970002DE9F047864C92B0FFF70EFF854B4022D1
:1019800020461A8004F082F88348844907904FF477
:101990004050202300264FF00808089180254FF47E
:1019A0000062109007A920464FF400770F93099624
:1019B0000B960C950D970E921196CDF8288004F099
:1019C00009F901220621204604F0F4F90720744D9C
:1019D00004F070FA012120460B2404F0A7F9022735
:1019E0008DF8044001A801248DF806604FF4803A78
:1019F0004FF460298DF805708DF8074002F096F9D4
:101A000028460DEB08010596CDF808A08DF80C408E
:101A10008DF80D40CDF810908DF8188003F006FD7C
:101A2000284605212246234603F07CFE2846052150
:101A30003A46234603F076FE2846394603222346DB
:101A400003F070FE284639460422234603F06AFE5E
:101A5000284604210522234603F064FE284604217B
:101A60002346062203F05EFE072228463946234617
:101A700003F058FE424623462846394603F052FEFC
:101A80002846214603F092FD0596464E0DEB0801CF
:101A90003046CDF808A08DF80C408DF80D40CDF8FB
:101AA00010908DF8188003F0C1FC30462146224684
:101AB000234603F037FE304621463A46234603F0DC
:101AC00031FE032130460A46234603F02BFE304602
:101AD00003210422234603F025FE30462146052239
:101AE000234603F01FFE304621460622234603F01C
:101AF00019FE304603210722234603F013FE424617
:101B000023463046032103F00DFE3046214603F004
:101B100087FE2146284603F01FFD2846FFF780FB7D
:101B20002146304603F018FD3046FFF779FB1E4989
:101B30001E4B0A68284621461A6003F05DFF3046B6
:101B4000214603F059FF284605212246234603F08B
:101B5000F3FE224623463046042103F0EDFE2846DC
:101B6000214603F0BFFE3046214603F0BBFE284667
:101B70004FF4E04103F07EFE30464FF4E04103F0C5
:101B800079FE2846214603F0A3FD12B0BDE8F08798
:101B9000080002406C0400204C240140A4030020F3
:101BA0000024014000280140900300207004002020
:101BB00010B5044603F032FBC0B244B1044B1A78AE
:101BC0008118CAB21A70034B197852181A7010BDD6
:101BD000A50500208405002010B5044603F0FCFA9A
:101BE000044B18782118C8B21870034B1A78811862
:101BF000197010BDA60500209C05002037B502AC69
:101C000044F8040D013C0DF1070514F8010FFFF72E
:101C1000E3FFAC42F9D13EBD07B5ADF80600C0B256
:101C2000FFF7DAFF9DF80700FFF7D6FF0EBD0000B3
:101C3000F8B5174B188828B3164C1748002503F041
:101C4000FDFA164E2570124C03203570FFF7C4FFC5
:101C500027883FB1FA20FFF7BFFF2088FFF7DCFF9E
:101C6000258007E00E4CFB20FFF7B6FF2088FFF72A
:101C7000D3FF2780307803F0AFFA064B187803F0D3
:101C8000ABFAD6E706490A88002AD5D1F8BD00BFCD
:101C90009E0500209C050020D4D60008A605002043
:101CA000A205002070B5104D104E287803F094FA6C
:101CB000307803F091FAFFF7BBFF0D4B1C7874B935
:101CC0000C4803F0BBFA0C48347000782C70FFF716
:101CD00083FF0A4B1878BDE87040FFF77DBF0849C5
:101CE00000220A601A7070BDA60500209C05002025
:101CF000A0050020D8D60008A40500209B050020E0
:101D000088050020034B5A789878034B42EA00215B
:101D100019807047900500209E050020034B5A78DB
:101D20009878034B42EA0021198070479005002003
:101D3000A205002038B5744C23780E2B00F2DC800D
:101D4000DFE813F0D8000F001E00C70028003500A0
:101D5000DA003C00B9001800DA0032005D00DA0059
:101D60008F006A49087840B9694B01221A7002F065
:101D7000B7FCBFE06548037883B9FFF7CFFFBBE04E
:101D8000624B19780129F8D8624A634B0020106031
:101D90001870AFE0062002F081FCABE00178012969
:101DA000EBD802F0DBFCA5E002F0FCFCA2E0D4F8EA
:101DB000030002F0FFFC0028DFD09BE0574B00211E
:101DC0005869FFF713F90028D7D1D4F803405449D4
:101DD0002046FFF715F930B920465249FFF72EF992
:101DE00010B1504C00E04E4C4F4D2978012903D0E2
:101DF00002F0BAFE01222A704C4804607AE0D4F85E
:101E00000300FFF725F90446FEF708FF4FF07E5167
:101E1000FFF70AF908B3B4F57A7FB4BF21464FF44F
:101E20007A714FF47A723B4B92FBF1F0642918609F
:101E300004DD322291FBF2F0C1B200E001213C4B03
:101E40003C4819703C4A037800211170002B51D195
:101E50003A4A04211170012201E037480122027040
:101E600048E0D4F803504FF083412846FFF7C8F804
:101E7000002882D024484FF08341D0F80740204604
:101E8000FFF7BEF800283FF478AF2846FFF7E0F8E8
:101E900005462046FFF702F928490123485500224C
:101EA0002648191811F8010C18B1DAB20133112BB8
:101EB000F6D12048D3E7154A107801283FF65DAFE8
:101EC000D4F80300FFF7C4F8D4F8071000F02EFF91
:101ED00071E7D4F80300FFF7BBF8012805D002280A
:101EE00006D048B901F02AF804E000F0E5FF62E707
:101EF00000F042FFFFF706FF0649086818B9BDE881
:101F00003840FFF795BE38BD90050020380F0020FF
:101F1000480F002088050020DC0F0020300600203C
:101F20000000C84200401C46CC0F0020EC0F0020EF
:101F3000A40500209B050020A0050020A705002087
:101F400010B503F05FF9002842D0224C2078032816
:101F50008CBF00200120FFF72BFE2378052B34D8FF
:101F6000DFE803F003071118272D4128E9D10123E9
:101F70002CE071284FF0000328D1174A174913703D
:101F80000B70022322E0164A00211070154803232B
:101F900001701BE0134A144913785854581CC3B2FB
:101FA00013700F4A11789942CBD10A4B0420187054
:101FB000C7E70A4B1978814207D1052306E0064995
:101FC0000A78824201D1FFF7B5FE00232370B8E7FB
:101FD00010BD00BFA105002084050020A50500203C
:101FE00070030020710300209005002038B5FFF732
:101FF000A7FF414B1868002878D0404A1168B1FB10
:10200000F0F400FB1414002C70D13D4BE05C60B97F
:102010003C4C3D4920680A78431C9342236065D1BB
:10202000FFF740FE0020206060E0411E0E2959D8D5
:10203000DFE801F0080A0C1E202C3032383B3D3F0F
:102040004144520031482EE031482CE0314B1868B1
:10205000FEF7E4FD304905460868FEF7DFFD01465E
:102060002846FEF7E3FE2A4A1168FEF72BFE37E00A
:102070002A4818E0274D2868FEF7D0FD0546264877
:102080000068FEF7CBFD0146284622E024490A6895
:10209000500823E0234A0FE0234BB3F90000FEF77A
:1020A000BDFD1DE0214800681AE0214A15E0214AE3
:1020B00002E0214A00E0214A10680FE01E4B1D4952
:1020C00018681E4B0A68196880184018FEF7A2FDB0
:1020D0001B49FEF7ABFE03E01A4A1078FEF79AFDA3
:1020E000FFF78CFD0134102C8FD191E7034B196859
:1020F0004A1C1A6038BD00BF880500208C050020EE
:10210000A70500206C030020A4050020F00F00208C
:1021100004100020F806002028070020FC0F0020F3
:10212000E0030020F40600206C040020E40F0020EF
:10213000380F0020CC030020D40300207C050020B1
:10214000000040402E0F002010B5054C05492046E8
:10215000054A07F0FDF92046BDE8104003F06EB8CF
:10216000CC050020C9D70008BC050020654B2DE92F
:10217000F3411868FEF752FD634B04461868FEF7FA
:102180004DFD01462046FEF751FE604B604C1F7826
:10219000604D614B0646294653F827305F4A20467A
:1021A00007F0D6F9204603F049F85D4B29461F7821
:1021B0005C4B5D4A53F82730204607F0C9F92046AA
:1021C00003F03CF8594B29461F78594B594A53F8AC
:1021D0002730204607F0BCF9204603F02FF8564B75
:1021E000564D1868FEF722F9554ACDE900012946F7
:1021F000204607F0ADF9204603F020F8514B524F2E
:102200001868DFF884814008FEF704FDFEF70EF938
:102210004E4ACDE900012946204607F099F92046AB
:1022200003F00CF84A4B4B4A1B683946204607F02E
:102230008FF9204603F002F830464749FEF742FD89
:10224000FEF7F4F8454ACDE900012946204607F09B
:102250007FF9204602F0F2FF414B1868FEF7E6F8DE
:10226000404ACDE900012946204607F071F9204691
:1022700002F0E4FF3C4B1868FEF7D8F83B4ACDE982
:1022800000012946204607F063F9204602F0D6FFF8
:10229000374B1868FEF7CAF8364ACDE900012946DF
:1022A000204607F055F9204602F0C8FFD8F8000094
:1022B000FEF7BCF8304ACDE900012946204607F078
:1022C00047F9204602F0BAFFD8F800103046FEF772
:1022D000F9FCFEF7ABF8294ACDE900012946204672
:1022E00007F036F9204602F0A9FF254B2046394673
:1022F000244A1B7807F02CF9204602B0BDE8F041D3
:1023000002F09CBFF806002028070020480F00209C
:10231000CC050020D8D7000814000020E4D700081E
:10232000CC0F002000000020EFD70008380F00205D
:102330002C000020F8D70008E40F002002D8000885
:1023400010D80008E003002029D800081DD8000894
:10235000F406002035D800080000C84241D8000823
:10236000FC0F00201FDE0008F00F00204AD80008F4
:10237000F80F002053D800085CD8000866D8000881
:102380000810002072D800080410002038B50B484F
:1023900002F054FF00240A4D605902F04FFF2D193E
:1023A000202002F019FF686802F048FF0C3405484D
:1023B00002F044FFE42CEED138BD00BF7ED8000807
:1023C000DCD60008CBDA000838B50C680546204694
:1023D00007F02CF9024628682146BDE8384007F08E
:1023E0002DB9000008B50A4B1878012805D9094A0B
:1023F0001068BDE8084002F021BF074802F01EFF48
:102400000649074B002201200A60187008BD00BF72
:10241000380F00202800002095D80008B8050020BB
:10242000DC0F002008B5084B1A780AB9074807E006
:102430001878012801D9064802E002F08FF9054812
:10244000BDE8084002F0FABE380F0020B7D80008F7
:10245000D1D80008E7D8000808B5094B187820B192
:102460000848BDE8084002F0E9BE074802F0E6FE71
:102470004FF6FF7005F09CFBBDE8084002F086B8FF
:10248000380F0020F5D800080FD9000810B5044611
:10249000084802F0D3FE206802F0D0FE202002F0AF
:1024A0009BFE606802F0CAFE0348BDE8104002F0DF
:1024B000C5BE00BF32D90008CBDA000813B5044608
:1024C0000DF106020846124907F066F8012803D00C
:1024D0002046FFF7DBFF19E0BDF80630642B03D977
:1024E0000C4802F0ABFE11E00B4A73B14FF47A7165
:1024F00091FBF3F01060094802F0A0FE084802F0DA
:102500009DFE0A2002F068FE00E013601CBD00BFC3
:10251000D2DA00083AD90008B8050020BEDD00086C
:10252000C4D7000837B51F4B05461878032802D8D2
:102530001D48006833E0084601AA1C4907F02CF842
:102540000128044603D02846FFF7A0FF29E01849D8
:1025500048690021FEF74AFD08B116481FE0019DB9
:1025600015492846FEF74CFD20B928461349FEF7C9
:1025700065FD08B1124812E0124D2A78012A02D0F6
:1025800002F0F2FA2C7001980F4B1860FDF74EFF25
:1025900002460B460D480E4906F0DAFF0B4802F0E2
:1025A0004DFE3EBD380F0020100000205DD9000810
:1025B0003006002060D900080000C84200401C46D8
:1025C00082D90008CC0F0020EC0F0020CC050020A1
:1025D000A3D9000813B51C4B04461878032802D869
:1025E0001A4800682DE008460DF10602184906F069
:1025F000D3FF012803D02046FFF748FF23E0154909
:10260000BDF80600B1F90020134B904203DBB3F98B
:102610000010884206DD1149B3F90030104806F079
:1026200097FF0DE00F4B1A78032A01D00021197093
:1026300002F0ECF80A480C49BDF8062006F088FFC5
:10264000074802F0FBFD1CBD380F002010000020E1
:10265000D2DA0008C80F0020BE0F0020B6D900084B
:10266000CC050020CC0F0020D3D9000813B5144BA3
:1026700004461878032802D8124908681DE0124A57
:102680001378032B01D0114817E0084601AA10491E
:1026900006F082FF012803D02046FFF7F7FE0EE088
:1026A000019800F0F1FD0198FDF7C0FE02460B46CF
:1026B0000848094906F04CFF064802F0BFFD1CBD62
:1026C000380F002010000020CC0F0020E3D90008B4
:1026D0005DD90008CC05002006DA000813B51A4BB6
:1026E00004461878032802D8184B186829E00846D1
:1026F00001AA174906F050FF012803D02046FFF732
:10270000C5FE20E0019802F055F808B9114818E01C
:1027100011490868FEF782FA104A04461068FEF76D
:102720007DFA01462046FEF781FB0D49FEF7CAFA05
:10273000FDF77CFE02460B460A480B4906F008FFEF
:10274000084802F07BFD1CBD380F0020100000205F
:102750005DD900081DDA00080007002028070020C6
:102760000000C842CC0500203BDA000813B51A4B24
:1027700004461878012802D91849086828E0084654
:102780006A46174906F008FF012803D02046FFF7E4
:102790007DFE1FE06846134906F02AFF18B900F0D5
:1027A000EBFA114814E06846104906F021FF18B909
:1027B00000F0C4FB0E480BE068460E4906F018FF17
:1027C0000028E3D100F078FB08B10B4800E00B488B
:1027D00002F034FD1CBD00BF380F0020280000208F
:1027E00054DA000858DA000860DA00087ADA0008DB
:1027F0007FDA000894DA00089ADA0008B0DA0008F4
:1028000013B5164B04461878012802D914480068FD
:102810001EE0084601AA13490DF1060306F0BCFEAE
:10282000022803D02046FFF731FE16E0BDF8040071
:1028300041F27E33A0F10A0291B2994201D90A48CD
:1028400006E0BDF806104A1EB2F57A7F03D30748AA
:1028500002F0F4FC01E000F0EBFD1CBD380F00209D
:1028600028000020CEDA0008D6DA0008FBDA0008DB
:1028700008B5094A0346117881420CD01070074A06
:10288000074952F82320074806F062FE0548BDE8D4
:10289000084002F0D3BC08BD480F002014000020FF
:1028A0001EDB0008CC05002008B5084B187801286D
:1028B00002D80749086805E001F074FF0120FFF71E
:1028C000D7FF0448BDE8084002F0B8BC380F00202C
:1028D0001000002035DB000808B5052001F0DEFE01
:1028E0000120FFF7C5FF0248BDE8084002F0A6BC82
:1028F00044DB00082DE9F34105460F46084601AACE
:10290000154906F049FE012821D10024134E56F83E
:102910002480404606F08AFE01A90246404606F0A1
:102920008DFE18B10134042CF0D110E02846394650
:10293000FFF7D2FF0A4BE2B21A700A4956F8242078
:10294000094806F005FE084802F078FC02E0284637
:10295000FFF79CFDBDE8FC8153DB00080000002070
:10296000CC0F002058DB0008CC05002073B50546CD
:102970000E46084601AA0F4906F00EFE012814D1A2
:1029800000240D4B01A953F82400032206F056FE43
:1029900018B10134052CF4D107E028463146FFF781
:1029A0009BFFE0B2FFF764FF02E02846FFF76EFDF1
:1029B0007CBD00BF6DDB00081400002008B5094B8A
:1029C000187808B1084809E008490A78032A02D0B3
:1029D0000120FFF74DFF01F083FE0548BDE80840E8
:1029E00002F02CBC380F002071DB0008CC0F002057
:1029F00085DB000838B5104C104B054653F82520F0
:102A00000F49204606F0A4FD204602F017FC0D48B1
:102A100050F82500FDF70AFD0B460B49024651F818
:102A20002510204606F094FD204602F007FC0748DA
:102A3000BDE8384002F002BCCC0500204000002078
:102A400091DB00083006002000010020CBDA0008EE
:102A500070B58AB006460D46084602AA204906F01F
:102A60009BFD0128044603D03046FFF70FFD35E0FB
:102A700002A81C4906F0BCFD30B920460134FFF71E
:102A8000B9FF302CF9D129E002A800F05DF9041E4D
:102A900005DA154902AA154806F05AFD13E002A806
:102AA00006F0C4FD01302818114901AA06F074FD92
:102AB000012810D10F4B1978012908D90E4A0B486B
:102AC000116806F045FD094802F0B8FB06E0204613
:102AD000019900F02BF92046FFF78CFF0AB070BD7A
:102AE0009ADB00089FDB0008A4DB0008CC0500206F
:102AF0005DD90008380F00202800002030B50C24D4
:102B000087B00546002122460DEB040006F018FDB3
:102B1000054B0DEB04000093044913222346039553
:102B200006F044FC07B030BDC9230008DCD600081D
:102B300008B5064802F082FB20220548002106F075
:102B4000FFFC044B00221A6008BD00BFC2DB000876
:102B50000C0600202C06002038B54B4D2B6813B313
:102B60004A4A1068B0FBF3F403FB1404DCB948488C
:102B700002F064FB2B684FF47A7292FBF3F2454942
:102B8000454806F0E5FC444802F058FB434920461E
:102B9000FFF7ECFA424802F051FB424802F04EFBCC
:102BA000414802F04BFB02F02DFB00286BD002F0F5
:102BB00035FB3E4B3B491A68C0B28854511C202952
:102BC00014BF19601A601B6808BF0A203BB30A28AB
:102BD00001D00D2823D1012B23DD3548334C02F0E1
:102BE0002DFB344802F02AFB2E4D20680021295489
:102BF0002846FFF783FF044638B1006806F016FD4B
:102C0000A36829182046984702E02B4802F016FBDB
:102C10002A4A107828B1254B0021196038BD0328B5
:102C200002D1FFF785FFBEE77F281DD1012B17DDFD
:102C30001C4C2348E118002301F8023C02F0FEFA84
:102C4000204602F0FBFA202002F0C6FA1C4802F0EF
:102C5000F5FA204602F0F2FA14480268931E0DE0DD
:102C6000124A581E10609EE7A0F120025E2A07D982
:102C7000072002F0B1FA0D4801684B1E036092E78D
:102C800002F0AAFA8FE738BDB8050020E00F002057
:102C9000BEDD0008C7DB0008CC05002094D8000882
:102CA000C3DB00080C060020BADD00082C0600205B
:102CB000CBDA0008C0D70008DCDB0008DC0F0020FE
:102CC000EEDB000808B50C4802F0B8FA0B4802F039
:102CD000B5FA00F033FF0A4A03460A490A4806F0EB
:102CE00037FC00200146FFF72FFA084802F0A6FA49
:102CF000BDE80840FFF71CBFBEDD0008C4D70008D0
:102D0000F8DB0008F2DB0008BC050020FEDB000851
:102D100008B5FEF741FD00F05FFD02F0C1F901F0DA
:102D200023FBBDE8084002F05DBB00002F2808B57A
:102D300006D8044B43F82010FFF7EAFF012008BD36
:102D4000002008BD3006002070B506460024094B5F
:102D500053F82450284606F069FC314602462846BE
:102D600006F06CFC20B10134302CF0D14FF0FF3470
:102D7000204670BD40000020344B30B5344D3549FD
:102D80005D63354D99605D64344D3549DD64354D85
:102D900099639D653449354D99641D663449354DB7
:102DA00019655965DD66344C3449354D1C61D9656A
:102DB0001D67344C3449354D354ADC635966354C12
:102DC00035495D674FF07A50344D1A60D860002263
:102DD0004FF07C505A605A619A61DA611A625A6205
:102DE0009A62DA6218631C64DA6799669D67C3F8B1
:102DF00080402B4CC3F8A800C3F884404FF07E54A9
:102E0000C3F88C40274C4FF08340C3F89040264CC9
:102E1000C3F88820C3F89440C3F89820234CC3F823
:102E2000A020C3F8A420C3F8AC00C3F8B420204805
:102E3000204AC3F89C40C3F8B000C3F8B810C3F8E8
:102E4000BC20BDE83040FFF763BF00BF3006002064
:102E50000000484200006148CDCC8C3F0000404259
:102E600000803B4600006041000096420050C3468F
:102E70000000A04100C0F34452491D3A00800945BA
:102E800000A00C450000F04100803B4400808944D4
:102E90004E62C03F0000204100007A440020CB4534
:102EA0009A99193E000016446666663F00007A460D
:102EB000CDCC4C3D0000B44338B540F2E73001F0D2
:102EC000EAFB0546012003F02BFB212003F006FC62
:102ED000012802D001F0DEFBF7E703F0C5F834204B
:102EE00003F0D6F8124803F043F904280CD1104C33
:102EF000104B2046E15803F003F9042806D10E4890
:102F000004348442F4D101E0002400E0012403F001
:102F1000B7F801F0BFFB002003F002FB212003F013
:102F2000DDFB0128FAD0284601F0B5FB204638BD6C
:102F300000FC0008300AFF17C0FC000808B504496F
:102F4000C022044806F0F3FABDE80840FFF7E0BEEF
:102F500000FC00083006002038B5FFF70DFF0E4BCF
:102F60001C68204604F074FF18B9BDE83840FFF72C
:102F7000A3BF0A48056820462946FEF755F818B150
:102F8000BDE83840FFF7DABF28462146FEF756F87D
:102F90000028EAD138BD00BF00FC00083006002040
:102FA00073B505460E460120082106F023FA056098
:102FB00086800446102003238DF807006E612846A2
:102FC00001A9ADF804608DF8063003F0FDF8204645
:102FD0007CBD03688288D9680A4214BF5A611A61AD
:102FE0007047000000000000F8B51F4B002418686F
:102FF000FDF714FE05462046FDF706FA18A3D3E9AF
:103000000023FDF767FA0022184BFDF763FAFDF77E
:10301000FBFC074604F048FF154906463846FDF715
:1030200051FE04F041FF1349FDF700FF0146304611
:10303000FDF740FD1049FDF745FE2946FDF742FE2C
:103040004FF07C51FDF73EFEFEF702F80B4921F8E8
:1030500014000134B4F5806FCDD1F8BDAFF300801A
:10306000182D4454FB211940280700200000503F30
:10307000000040400000C0403ACD933F2E070020A2
:1030800002880B4B9A864188198782889A87018823
:10309000A3F5806312318AB21A87418812318AB24D
:1030A0009A878088123081B2A3F84010704700BF21
:1030B00000080040F7B5544B544C18785449042884
:1030C000544A554840F0968001252560534C544E93
:1030D000276805600D603068156015611562394616
:1030E000FDF7E6FC4F49D1F8B010FDF7EBFD4E4A75
:1030F000054614682146FDF7A1FF38B904F10044E4
:1031000028462146FDF77CFF00B92C46384621466B
:10311000FDF7D0FC454E074631682046FDF7C8FC58
:10312000404BD3F8B410FDF7CDFD01463846FDF70E
:10313000C1FC3A49346008604FF08941FDF7C2FD97
:103140003B49FDF773FEFDF783FF002802DA00F527
:103150008060FAE7374D80052A680224870D92FBCC
:10316000F4F0FDF75BFD2F4E0446D6F8AC50324E1E
:1031700036F91700FDF752FD2946FDF7A3FD2F494B
:10318000FDF754FE01462046FDF794FCFDF786FF4F
:1031900007F2551399058F0DADF8000036F91700A9
:1031A000FDF73CFD2946FDF78DFD2449FDF73EFE68
:1031B00001462046FDF77EFCFDF770FFADF80200EA
:1031C00007F255108205970D36F91700FDF726FD19
:1031D0002946FDF777FD1949FDF728FE01462046EF
:1031E000FDF768FCFDF75AFFADF804006846FFF7ED
:1031F00047FF07E000232360036011480B60136062
:1032000003600361FEBD00BF380F00207C00214237
:103210001C8021426C8021420C80214278030020D6
:10322000F00600203006002008070020740300206C
:103230000000B443280700202E0700200000C842E9
:103240007C80214210B50D4CFDF7E8FCD4F8BC1091
:10325000FDF738FDA16DFDF735FD4FF07C51FDF711
:1032600031FD074B04461868FDF7D8FC014620469F
:10327000FDF7DCFD0349086010BD00BF30060020EB
:1032800028070020F006002008B5054B996DFDF7D2
:1032900019FD4FF07C51FDF715FD0249086008BD8E
:1032A00030060020F006002030B50849084D094CD2
:1032B000094A28B101232B6023600B60137030BDD5
:1032C000286020600860107030BD00BF1C80214263
:1032D0007C0021420C80214213070020104B1A78F9
:1032E000104B002A14BF014600218AB20E499A866B
:1032F0001A879A8791F900208AB10C4B0822196825
:1033000091FBF2F3C01803D48842A8BF084600E03E
:103310000020074A81B211879187A2F840107047B8
:10332000380F0020000800402C070020280700204C
:1033300000040040044B054A19688842D8BF20EABF
:10334000E0711160704700BF2807002000070020CF
:1033500010B5044672B604F00FFC194B186062B643
:103360001849621CD0B208700B78062B01D90122D3
:103370000A701548154B50F82410154A196052F878
:1033800024001449144B086053F8242013481449AE
:10339000026091F9003023B1124A92F90000FFF760
:1033A00083FF1148114B50F82410114A196152F84B
:1033B00024001049104B086153F824200A6110BD05
:1033C000FC06002012070020C00100206C80214272
:1033D000F80100207C802142300200208C802142B4
:1033E0002C07002013070020DC010020000801400A
:1033F00014020020000C01404C02002010B50A4BC2
:1034000004461878FFF7A4FF042094FBF0F160183D
:1034100047F6FF7205499042A8BF10462246BDE814
:10342000104004F077BC00BF12070020FD330008F5
:103430002DE9F041064600200F46FFF789FF40F2D4
:10344000E73001F028F9804672B60025BD421CDA4B
:10345000114C01F01FF940232361082004F0A8FB60
:103460004FF480002061304604F0A2FB01F012F915
:1034700002212161082004F09BFB4FF08072226141
:10348000304604F095FB0135E0E762B64046BDE802
:10349000F04101F000B900BF000C0140F0B585B06B
:1034A0000646124C01A803F035FD701E86B2202599
:1034B00001A901272046ADF80650ADF80470ADF81B
:1034C000086003F0B5F901A803F024FDADF806503B
:1034D000074D01A92846ADF80470ADF8086003F067
:1034E000A7F90023AB84A38405B0F0BD000400401D
:1034F0000008004038B51A4D1A4B2A78044618784F
:10350000824220D104F075FB2878FFF721FF16498D
:103510000A68501C08600B68052B02D9134A002169
:10352000116013480378042B09D1022294FBF2F0B6
:10353000104920182246BDE8384004F0EBBB017862
:1035400003290BD1F1E709490B480A68531C0B60AA
:103550000168054B4A1C02600020186038BD00BF9E
:103560002E0F0020120700201C0700201407002047
:10357000380F0020FD330008F406002038B50C4851
:10358000002401780B4B0C4D20461C802970FFF75E
:103590008BFE95F90000FFF7DBFE084B022208497D
:1035A0001A7020462246BDE8384004F0B3BB00BF85
:1035B000120700202007002004070020380F0020F9
:1035C0007936000870B505460020FFF76DFE1B4BED
:1035D0001B49586C0968FDF729FC064619481A4C26
:1035E0000068FDF71BFB01463046FDF76BFBFDF75E
:1035F0002FFD164A02231168206091FBF3F0FDF7BE
:1036000021FE1348134B0268134920680A601860B2
:103610001868FFF763FE114A11490020114B106032
:103620000860114A11491860114B10600D701A683A
:103630001049BDE8704004F06DBB00BF30060020AB
:1036400004100020280700202407002090030020F9
:10365000242100200007002098030020DC03002024
:103660001C07002014070020F40600201207002089
:10367000E0030020FD330008F8B54D4B0646B3F9D2
:103680000000FDF7CBFA4B4C0746D4F89050294682
:10369000FDF7B6FC10B329463846FDF7C7FBD4F852
:1036A0009410454CFDF70EFB2168FDF7BFFB044667
:1036B00042480068FDF7B2FA01462046FDF702FBDA
:1036C000FDF7C6FC3E4A3F4B106018601068FFF7DC
:1036D00005FE4FF47A703C49024651E0D4F8981048
:1036E0002846FDF7E7F901463846FDF789FC002832
:1036F00049D038462946FDF779FC20B1D4F89C0022
:10370000FDF7A6FC0646314C25786B1CDAB250B2A8
:103710000628C8BF0122227094F90000FFF718FEA6
:10372000244C2549606C0968FDF780FB234B054656
:103730001868FDF773FA01462846FDF7C3FAFDF74E
:1037400087FC1F491F4A086010600868FFF7C6FD24
:103750003046FDF763FAD4F8A010FDF7A9F9FDF79C
:1037600077FC646B0546FDF759FA2146FDF748FCE6
:1037700018B12046FDF76CFC0546134930462A4631
:1037800004F0C8FA0EE0114B1148197803220270B8
:103790004A1CD0B241B20629C8BF0120187018785F
:1037A000FFF710FF02490888431C0B80F8BD00BFDB
:1037B00020070020300600200410002028070020E9
:1037C00000070020240700207936000804070020A5
:1037D000380F002000000000514B2DE9F0475F6DCD
:1037E0004FF085413846D3F844809E6CDD6CDC6F29
:1037F000D3F8B890FDF722FC40B938464FF081412C
:10380000FDF7FEFB20B14FF0814701E04FF0854707
:1038100040464449FDF712FC58B94046FCF706FE05
:103820003DA3D3E90023FDF7C7F820B1DFF81881E5
:1038300001E0DFF8F08030464FF08841FDF7FEFBF5
:1038400040B930464FF07E51FDF7DAFB20B14FF022
:103850007E5601E04FF0884628464FF08841FDF73C
:10386000EDFB40B928464FF07E51FDF7C9FB20B172
:103870004FF07E5501E04FF0884520460021FDF7CE
:10388000DDFB10B14FF07E5A01E04FF0000A4846D0
:103890000021FDF7BFFB08B1DFF8B09038462249A0
:1038A000FDF710FA0146FDF705F9FDF7D1FB1F4AB8
:1038B0001F49136808605C081E49B4FBF0F00860FB
:1038C000FFF7ECFD3046FDF7C3FB1B4A1B4C108095
:1038D0002846FDF7BDFB1A4B18805046FDF7B8FB94
:1038E00020700F4C48461049FDF7A0FAA16DFDF776
:1038F000E9F94FF07C51FDF7E5F912496765086079
:10390000C4F84480A664E564C4F87CA0C4F8B89008
:10391000BDE8F047FFF768BB9A9999999999B93F23
:10392000300600200000404000007A447C02002065
:103930000C07002028070020180700202C07002073
:103940001007002008070020CDCCCC3D0000B44378
:103950002DE9F04F89B0FFF73FFF714B714E1868AA
:103960007149724C4FF000080322102530604FF06F
:10397000800981F800806E4803A98DF80E2000921E
:1039800001278DF80F50ADF80C9002F01DFC204679
:1039900003A98DF80F50ADF80C7002F015FC4FF034
:1039A000020C204603A9ADF80CC0CDF804C08DF878
:1039B0000F504FF0400B02F007FC204603A98DF892
:1039C0000F50ADF80CB002F0FFFB204603A98DF8B4
:1039D0000F504FF4807AADF80C9002F0F5FB2046C2
:1039E00003A98DF80F50ADF80CA002F0EDFB4FF4D9
:1039F00080034FF400004FF080712361206121614A
:103A00004FF40050394602F01FF839464FF4805009
:103A100002F01AF80DEB050003F085FA3568DDF8C1
:103A200004C0ADF81650434D6022284604A9ADF8F5
:103A30001020ADF818C00192ADF8127003F07CF8B8
:103A40002846082103F0E4FB284604A903F030F9D6
:103A50002846082103F01CFC284604A903F0D6F9E7
:103A60002846082103F048FC3946284603F014FB99
:103A700004A803F058FA3668019BADF816602E4E84
:103A800004A93046ADF81030ADF81270ADF81880CA
:103A900002F07CFF3046082103F062FB304604A9A7
:103AA00003F04AF83046082103F0B2FB304604A97F
:103AB00003F0FEF83046082103F0EAFB30463946B1
:103AC00003F0EAFA3046394603F038FA2846394618
:103AD00003F034FA0098A6F8248003A9A5F82480FE
:103AE00018258DF80E002046ADF80CB08DF80F505B
:103AF00002F06AFB204603A9ADF80C908DF80F5038
:103B000002F062FB204603A9ADF80CA08DF80F501F
:103B100002F05AFB4046FFF71BFC09B0BDE8F08FEE
:103B200028070020000700202E0F0020000C014075
:103B300000080140000400400008004041F2955098
:103B40007047000037B508214048FFF729FA404D7B
:103B5000102128603D48FFF723FA3E4C206000F01A
:103B600023FD04F05CF8FFF7F7F9FDF701FFFFF71D
:103B7000EFFE01F083FB01F0E9FAFFF7A3F800F094
:103B800035F9002000F08AFD334B00201870FFF754
:103B9000D1FBC8206421FFF74BFC64214FF49670E1
:103BA000FFF746FC64214FF4C870FFF741FC642125
:103BB0004FF4FA70FFF73CFC64214FF4C870FFF734
:103BC00037FC64214FF49670FFF732FCC820642163
:103BD000FFF72EFC00F034FC286825680268818815
:103BE0002C68AB881161194823614FF40041FFF73D
:103BF000D7F91A4A016810608088194D48612C680D
:103C0000184944F080732B600A68174D42F0010098
:103C100008604FF6FF742C60144D2C68631C2B60F9
:103C200000BF00BF00BF00BF114900200A68114D4E
:103C3000019208602C68019B191929600A4D0198AE
:103C40002A689042E8D2019CE5E700BF000C0140E1
:103C5000340F0020400F0020480F00208C0F002060
:103C6000FCED00E0001000E0300F0020440F0020C9
:103C7000041000E03C0F002000BFFDE7084A0023CD
:103C800008491360136113624FF400004FF480334E
:103C90004FF400320861C1F81034C1F81024FEE777
:103CA0006C80214200080140084A00230849136043
:103CB000136113624FF400004FF480334FF400326D
:103CC0000861C1F81034C1F81024FEE76C8021426D
:103CD00000080140084A0023084913601361136279
:103CE0004FF400004FF480334FF400320861C1F804
:103CF0001034C1F81024FEE76C8021420008014016
:103D0000084A002308491360136113624FF400004E
:103D10004FF480334FF400320861C1F81034C1F819
:103D20001024FEE76C80214200080140C37810B5E2
:103D3000012B044603D920487521FFF79DFF6078C9
:103D40000F2803D91C487621FFF796FFA1780F2989
:103D500003D919487721FFF78FFFE27802B317489C
:103D6000C168CA43C2F3022361780F22C3F1040081
:103D700022FA03F201FA00F1A37820781A400A43EC
:103D8000110100F16043CAB203F5614080F80023DD
:103D90002178012201F01F03480902FA03F307E02A
:103DA0002378012203F01F01580902FA01F32030A1
:103DB000034941F8203010BD7FE0000800ED00E02D
:103DC00000E100E0082381EA0002D20701D449089B
:103DD00005E081F01801C1F3470242F08001013B88
:103DE000400813F0FF03EED10846704738B50D4B7D
:103DF000AA220D4C1A7014F8010F0A490B4B6518D2
:103E000005F160429C4282F81908F4D10024CC717B
:103E1000044D285DE979FFF7D5FF0134072CE871DF
:103E2000F6D138BD910F0020E7F7FF1FEDF7FF1F18
:103E300008B500F025FA044B5A6822F00F0040F054
:103E40000301596008BD00BF00080140044B5A68D7
:103E500022F00F0040F00401596000F027BA00BFC3
:103E60000008014008B503F0CFFEFFF7EFFF00F0B8
:103E700011FA044B1868044B026881880020116114
:103E8000187008BD340F0020480F00200249400080
:103E9000002203F05FBF00BF653E000810B5044676
:103EA0004FF49670FFF7F2FF034B044A04490020D9
:103EB0001C701070087010BDAC0F0020900F002017
:103EC000B40F0020012808B507D002280ED0002822
:103ED00025D11E201249012204E0FFF7A9FF104955
:103EE0008C200222BDE8084003F034BFFFF7AEFF8C
:103EF0000C4B18680C4B02688188032018700B4B20
:103F0000516100200A4A0B49187001200A60FFF72E
:103F1000C5FF43F69820BDE80840FFF7B7BF08BDCE
:103F2000C53E0008340F0020990F00209A0F002092
:103F30009B0F0020B00F0020024B042200201A70BB
:103F4000FFF7C0BF480F002010B504464FF496702D
:103F5000FFF79CFF054B06491868064B02780020C6
:103F60000A70054A1C70107010BD00BFB00F002011
:103F7000900F0020AB0F0020B40F002038B5614C2B
:103F80002378082B00F09B8012D8052B6AD005D827
:103F9000032B47D0042B40F0B3804BE0062B00F0FE
:103FA0008B80072B40F0AC80BDE83840FEF784BF23
:103FB000332B2FD00AD8092B00F08A800A2B40F02F
:103FC0009F802370504B187860708FE0552B03D082
:103FD000CC2B40F0958011E04C4A04F1010011789F
:103FE000552904D013704A4A1060082009E00025C2
:103FF00015704849082205F08BFA30B9444B01206E
:104000001C60BDE83840FFF749BF2846BDE838408E
:10401000FFF728BF40493F4A3D4B042008701A6013
:10402000082069E03D483C4A394B04211860117072
:10403000102061E0354A117804294DD1002010701C
:1040400062782F2A5CD8364800EB820310F82220D1
:104050005878A270E0709A782F48DB7822716371EB
:10406000017025E0294A1178052905D02849013435
:1040700013700C601846C4E70025157065782F2D65
:104080003ED8A078FCF7C6FD01462846FEF74EFE56
:104090006078234A02EB800312F8201058789A784F
:1040A000E070DB781C48A1700421227163710170FB
:1040B000174A062014601FE0FEF740FF01E0FEF7FC
:1040C0005BFE1549124A042008701460012013E0B9
:1040D0000E4A1178092902D0137001348EE76078F6
:1040E0000023032813700BD8074A107008480A4BA6
:1040F0000421046019700220BDE83840FFF724BF96
:1041000038BD00BF9B0F0020CC0F00209A0F00206D
:10411000B00F0020910F0020990F0020BC05002057
:10412000300600200020FFF79DBE000008B50C4AB5
:104130000C4B1068197800F8011B10604FF4967052
:10414000FFF7A4FE084A1378591EC8B2107018B1C0
:10415000BDE80840FFF7A2BEBDE80840FFF70EBF6C
:10416000B00F0020900F0020AC0F00200E4B10B5B8
:104170000E4C9A682178C2F3002303FA01F30C482D
:1041800002781343037000F091F89620FFF77EFE4B
:104190002078431CD9B20729217003D9BDE810400B
:1041A000FFF7C4BF10BD00BF00080140B40F0020DE
:1041B000900F002008B50B4B1A68501C18604FF484
:1041C0009670FFF763FE08490B785A1ED0B208704C
:1041D00018B1BDE80840FFF7B7BEBDE80840FFF7DB
:1041E000A1BF00BFB00F0020AB0F002010B5104CD6
:1041F00088B9104A23781078591C40FA03F02170CE
:10420000C1070AD4FFF714FE0B493C200122BDE888
:10421000104003F09FBDFFF719FE9620FFF736FE12
:104220002378072B03D9BDE81040FFF7C3BF10BDAB
:10423000B40F0020900F0020ED41000810B5044697
:10424000002817D10C4B1878032808D0042811D166
:10425000FFF7FCFD2046BDE81040FFF7C7BF00F0A8
:104260000FF8FFF7F3FD05491E202246BDE8104078
:1042700003F070BD10BD00BF990F00206D41000814
:10428000034A938923F0060001040B0C93817047C5
:10429000002C0140044B9A8E1A8F9A8990B240F0FC
:1042A00006019981704700BF002C0140054A93899F
:1042B00023F0060001040B0C43F00400918E118FD3
:1042C00090817047002C01401E4B188A9A8E80F016
:1042D0000401C1F380001C491B8F097892B29BB284
:1042E00049B940B1D11AB1F5F07F04DDB1F5117FC4
:1042F00001DAFFF721BE15490978D9B91449B1F996
:1043000000108A4216DB1349B1F900108A4211DC11
:10431000114AB2F900108B420CDB104AB2F90010BE
:104320008B4207DC60B90E480E4A016818461160DE
:1043300000F06CBA054B1A78042A01D1FFF77EBF52
:10434000704700BF002C0140380F0020480F0020AC
:10435000C20F0020B80F0020BA0F0020C00F0020AD
:1043600024210020C40F002038B52B4CE06DFCF751
:104370006FFEFCF753FCE065FCF76AFE274BA56F68
:104380001880206EFCF764FEFCF748FC2066FCF702
:104390005FFE23490880606EFCF75AFEFCF73EFC86
:1043A0006066FCF755FE1F4A1080A06EFCF750FEB9
:1043B000FCF734FCA066FCF74BFE1B4B1880E06E4C
:1043C000FCF746FEFCF72AFCE066FCF741FE1749C5
:1043D0000880206FFCF73CFEFCF720FC2067FCF710
:1043E00037FE134A1080606FFCF732FEFCF716FCB4
:1043F0006067FCF72DFE0F4B0F4918802846FCF72D
:10440000FFFD30B928460D49FCF718FE10B10B4DE1
:1044100000E0094DA56738BD30060020C20F00201E
:10442000B80F0020BA0F0020C80F0020BE0F0020D8
:10443000C00F0020BC0F002000007A4400409C46C2
:10444000F0B589B0FFF790FF03204FF48073042785
:104450008DF8020069462548ADF8003001268DF838
:10446000037001F0B1FE02221B210DEB07008DF855
:1044700005208DF8041047248DF806608DF807603C
:10448000FFF754FC05A802F045FDADF81440184CA8
:104490004FF6FF75ADF818502046002505A9ADF878
:1044A000165002F0C5F9204602A9ADF80850ADF843
:1044B0000A50ADF80C60ADF80E50ADF8105003F096
:1044C00079F82046502102F09DFD2046394602F041
:1044D00047FF2046802102F085FF2046314602F04A
:1044E0002DFDFFF7D7FE09B0F0BD00BF0008014069
:1044F000002C0140034B1888083B198841EA004012
:10450000704700BF106C004010B5012104464FF009
:10451000C05002F0BFF8054B1A68A3F57E7142F453
:10452000807018600C80240C0C8110BD007000405D
:1045300008B5FFF7DFFF114B98421DD10020FFF7B0
:10454000E3FF1D20012102F081F801210C4801F058
:10455000D5FE08210B48FEF723FD01688288094833
:104560004A611021FEF71CFD0368808858610648E7
:10457000D0F800D04068004708BD00BFEDA5CEDEF2
:1045800000023000000C014000F0FF1F08B5034896
:10459000FFF7BAFF024A034BDA6008BDEDA5CEDE95
:1045A0000400FA0500ED00E013B5FFF7C1FF344B3E
:1045B0005A6A42F480205862596A41F400345C62BD
:1045C0005A6A012142F4803058621C2002F03EF801
:1045D00001214FF4006002F039F80120014602F099
:1045E00059F80220012102F055F80420012102F0BF
:1045F00051F801214FF4007002F028F801214FF426
:10460000806002F023F80120014602F01FF801202B
:10461000014601F0F7FF0220012101F0F3FF012123
:104620004FF4804002F012F801214FF0C05002F028
:1046300031F800244FF6FF73124801A9ADF8043099
:104640008DF8074001F0C0FD0F4801A901F0BCFD45
:104650000E4801A901F0B8FD01210D4801F04EFE00
:104660004FF4004001F06CFF02F06AF8204601F0C0
:1046700057FF212002F032F80128FAD01CBD00BFFC
:1046800000ED00E000080140000C01400010014076
:1046900000023000704700207047000010B504464B
:1046A0000020FEF747FE03F0A4FA094B00221A701F
:1046B000FFF7F0FD0748016807480A688B88016822
:1046C000136106480A688B880470536110BD00BFEF
:1046D000380F0020340F0020400F00200810002069
:1046E000002010B5FEF726FE03F083FA164B174C98
:1046F0001868236802688188186811619A88144CC8
:10470000426121781348032902D1042404700AE08D
:104710000123114A03701178994201D100202070C1
:104720000020FEF7C1FD0024094B1A78A2420ADBE3
:10473000FA204FF41671FEF77BFE42F2107003F080
:1047400037FA0134F0E710BD400F0020340F00208D
:10475000CC0F0020380F0020480F002038B50E4B3A
:104760000E4D00241C60D5F890002146FCF73EFC5D
:1047700068B1D5F898002146FCF738FC38B10848F4
:10478000032202700020BDE83840FEF71BBFBDE8E1
:104790003840FEF7F3BE00BFE80F002030060020CF
:1047A000380F0020024B00201870FEF7C3BD00BF79
:1047B000CC0F002010B500210446FCF735FC20B9D1
:1047C00020460E49FCF726FCA8B10D4B00201870BE
:1047D000FEF76AFD0B480068FCF720FA2146FCF75B
:1047E00071FA0949FCF76EFAFCF758FC80B2FEF743
:1047F000A1FD012010BD002010BD00BF0000C84277
:10480000CC0F0020280700200AD7233CF8B57B4BAB
:104810000446D3F8A45000212846FCF7E7FBD0B9A2
:10482000774E28463168FCF74DFA07462046FCF7DC
:10483000F1F901463846FCF73DF94FF07E51044648
:104840002846FCF737F901462046FCF7EFFA3060BE
:10485000FCF724FC84B26B480278042A40F0938071
:1048600069490B88A34200F08E8068490A787AB9BA
:10487000674A6848B2F900300168E21A5143664A53
:10488000B2F90000C31A91FBF3F0FEF753FD77E095
:10489000087801281FD15E4A584FB2F90060BD6FF9
:1048A000A01BFCF7BBF901462846FCF70BFA0746AC
:1048B0005948B0F90030981BFCF7B0F9014638466A
:1048C000FCF7B4FA29460646FCF7B8FB00B12E46C1
:1048D00052490E6054E00B78022B4BD14C4D504E98
:1048E000B5F90050601BFCF799F93168FCF7EAF95B
:1048F000494A0646B2F90000401BFCF78FF9014611
:104900003046FCF793FA00210646FCF797FB28B3E4
:104910003A4DD5F888000146FCF7D4F94FF08141B3
:104920000746D5F88C00FCF7CDF93146FCF7CAF9FB
:1049300001463846FCF7BEF803F0F2FAD5F88810C5
:10494000FCF7B6F80646D5F88C000146FCF7B2F83D
:1049500001463046FCF76AFA054600E00025274B81
:1049600028469E6F3146FCF769FB00B135462B495E
:104970000D6005E00978032902D12046FEF762FCAC
:1049800021490C802BE00078022803D01D4A1178C1
:1049900003290AD11E4BB3F90000844205DC002034
:1049A000FEF7C8FC0420174B18E0164A117899B995
:1049B0001C4BB3F9000084420EDD154AB2F9001019
:1049C0008C4209DC184A1178481CC3B2142B1370AE
:1049D00005D9FFF785FE02E0134B00201870094A45
:1049E0001078012808D1114BB3F900108C4203DB79
:1049F000BDE8F840FFF7B2BEF8BD00BF30060020AA
:104A000080030020380F00207C030020CC0F002002
:104A1000C80F002028070020BE0F0020EC0F002048
:104A200000100020BA0F0020D40F0020BC0F00207F
:104A300070B572B63B4A3C483C4B1B681168026833
:104A400062B63B480478032C04460ED1394D2E68DB
:104A5000394DB5F90050AE4207D9384B04220270E7
:104A60001868016882880A6170BD2078002843D0E8
:104A70008B4201D35C1A01E0CC43E4183048017842
:104A800059B9934201D39B1A01E0D243D3182D4860
:104A9000834202D90320FFF701FE25490A78022A42
:104AA0000ED9294B9C420BD928480168002901DD09
:104AB000022014E0FFF714FEBDE87040FFF7F6BBDC
:104AC000087802280FD92249224B0A68B3F900005E
:104AD000824208D91D4A1368002B22DD0120BDE85F
:104AE0007040FFF7DBBD12490A78012A19D11A4B31
:104AF0001A491868086070BD0D4B197889B9184AB1
:104B000064231068B0FBF3F103FB11024AB91248A9
:104B1000144A0168114B10681960BDE87040FEF737
:104B200058BA70BD98030020C40F00202421002033
:104B3000380F00201C07002018070020340F002029
:104B4000480F0020801A060020A10700000700205F
:104B500014070020100700206804002094030020A0
:104B6000E00F0020400F0020014B00221A60704728
:104B7000E80F00202DE9F84F4D4D804608460C46C1
:104B8000FCF7A0F86969FCF79DF8A969074620467B
:104B9000FCF798F801463846FBF78CFF454BDFF8E9
:104BA00020A11968FCF742F907464348DAF800608B
:104BB0000068FCF733F801463846FCF783F84146B5
:104BC00081462046FBF774FF3C490446FCF736FA61
:104BD000AB4628B920460021FCF730FA98B100E036
:104BE000364CDBF80C102046FCF76CF8DBF81010A4
:104BF00007462046FCF766F801463046FBF75AFFA9
:104C00002F49086016E0E9682046FCF75BF8D5F804
:104C10008010FCF757F8296907462046FCF752F840
:104C2000D5F88410FCF74EF801463046FBF742FFFA
:104C3000CAF80000234A92F90050CDB140462249FB
:104C4000FCF7DEF908B1002005E020461F49FCF71B
:104C5000E1F918B10120FEF727FB09E01C4B93F99D
:104C6000000028B120461B49FCF7E8F90028EAD1EA
:104C7000114C134D2068FBF7D1FF296804463846D4
:104C8000FBF718FF1449FCF71DF82146FCF71AF84A
:104C900001464846FBF70EFF21460746FCF7C4F9DC
:104CA00000B12E603846FCF7D3F9BDE8F88F00BF9D
:104CB00030060020041000202807002000007A445D
:104CC000E80F00202C070020000096430000C8C217
:104CD000130700200000C8C13EC32E3A2DE9F04161
:104CE000204B214C1878032836D9204A2168D2F865
:104CF000A8501F4E2846FBF7E5FF1E4B4FF08E4194
:104D000007461868FBF7DEFF366880463046FBF73B
:104D100085FF01464046FCF789F8294606464FF0D4
:104D20007E50FBF7C5FE01463046FBF7CBFF014640
:104D30003846FBF7BFFE104920600C78012C02D0EA
:104D40000A78022A0AD10D4B1968FFF713FFFEF704
:104D5000F1FA0120BDE8F081002121600020BDE8CA
:104D6000F08100BF380F0020FC0F0020300600202B
:104D7000F80400200C100020CC0F0020EC0F0020C5
:104D800030B54FF4803085B001F05CF908204FF465
:104D90008033002501248DF80D00684402938DF8BE
:104DA0000C508DF80E4001F0A3F801A88DF80440D6
:104DB0008DF805508DF806508DF80740FEF7B6FFC8
:104DC000284601F08DFB204601F07AFB05B030BD8E
:104DD000194B1A492DE9F041096D06461868FBF791
:104DE00067FE174D07462968FBF764FE002421463D
:104DF0008046FCF705F92A4610B9C5F8008000E0A6
:104E00002C60104938461568FBF75CFF002104460A
:104E1000FCF7F6F800B100243046FBF7FFFE294608
:104E2000FBF746FE2146FBF743FEFCF711F920EAAB
:104E3000E070BDE8F08100BFF00F002030060020D8
:104E4000D80F0020000020412DE9F047384C0646DD
:104E5000D4F8508000214046FCF7F0F8354D00288A
:104E60005FD0D4F81C9000214846FCF7BFF800281A
:104E70003ED131483149D0F800A00F685046216A30
:104E8000FBF720FF01464846FBF714FE616A8146A6
:104E90004046FBF717FF01464846FBF70BFEA16AA9
:104EA00080465046FBF70EFF3946FBF70BFF0146E5
:104EB0004046FBF7FFFDE16A80463846FBF702FFFC
:104EC00001464046FBF7F6FD1D4A04461068FBF715
:104ED000A5FE1C4B1968FBF7A9FF01462046FBF70E
:104EE000F1FEFCF7B5F8B042D4BF28602E6019E09F
:104EF0002868FBF793FE124B04461868FBF78EFEFA
:104F00001149FBF7DFFE01462046FBF7D3FDFCF716
:104F10009FF8B042A8BF30462860FFF759FF2860CD
:104F200000E02E6003480068BDE8F047FEF7D6B900
:104F300030060020F8060020FC0F0020F40F0020AF
:104F400028070020041000200AD7233C2DE9F8434D
:104F5000314B324C1868FBF761FE3149FBF7B2FE6A
:104F60003049314E08603148256802683768501B67
:104F7000FBF754FE3946FBF7A5FE2D4B2D49186073
:104F800008682D4C401BFBF749FE3946FBF79AFE9B
:104F900025782A4A032D106002D1FEF78BF807E02E
:104FA000274EFFF745FDFFF799FE3068FFF74CFFEE
:104FB000244E254D31682B68244FC81AFBF72AFE72
:104FC0002349FBF77FFED7F8008081464046FBF778
:104FD00021FE01464846FBF775FE1E4C80462768B9
:104FE0003846FBF717FE01464046FBF71FFF1A4AFB
:104FF0001A4B106030681A7800212860216012B9BD
:10500000FDF7AAFD01E0FCF7F1FF154801684B1C14
:105010000360BDE8F88300BFD003002094030020A4
:105020009C65CA3304100020C403002068040020DB
:10503000F00F0020DC030020CC0F0020F80F002030
:1050400000070020440F0020D00F0020300F002068
:105050000000C8423C0F0020E40F0020DC0F0020BD
:10506000E00F002008B54FF4803000F0A3FF90B1AE
:105070000420FFF713FB084B1868084B026881886F
:1050800018685161026881884FF480305161BDE831
:10509000084000F0D7BF08BD340F0020400F0020AB
:1050A00070B5234C6068FBF7D3FF256D032894BFD0
:1050B000064600261F492846FBF7C0FF30B92846A0
:1050C0000021FBF79DFF10B1002500E0194D184CA1
:1050D0001949A06DFBF7F6FD01461848FBF7A6FE3F
:1050E000174B1860284602F01BFF16490860A06D98
:1050F000FBF7AEFFFBF792FDA0653046FBF78EFD98
:105100002565A56F6060D4F888102846FBF7DAFDA6
:10511000294606462846FBF7D5FDD4F88C10FBF748
:10512000D1FD01463046FBF7C5FC074A106070BD53
:1051300030060020000096420000C040C0E1644DEF
:105140000C100020F40F00200010002008B5FFF71D
:1051500017FEFFF7A5FF0D4B5868FBF79FFF0C49A3
:105160004FF47A7308700B480268B2FBF3F10A4BF4
:105170000A4A481EF021586082F8231000200721B7
:1051800098601960202382F8233008BD3006002083
:10519000CC0F00207C02002010E000E000ED00E0D9
:1051A0000B4901F580535A6850180A49C8601868BD
:1051B000904203D9821A4A60586004E0C2F58052D6
:1051C0004A60002159600348012100F0AFBD00BFD3
:1051D00010100020440002400849C0B201F580537D
:1051E0001A688854511C0A05100D1860044B196880
:1051F000CB0701D4FFF7D4BF704700BF10100020C9
:1052000044000240034B044958680A69801A18BFD9
:10521000012070475800024010210020064901F586
:1052200088531A69881A013A00F5885108BF4FF46B
:105230008072087A1A6170471010002010B5441E61
:1052400014F8010F10B1FFF7C7FFF9E710BD000018
:105250001FB500900C200023ADF80A0069460648EF
:10526000ADF80430ADF80630ADF80830ADF80C30CC
:1052700002F0CAFA05B000BD003801402DE9F04740
:10528000474D8EB003214FF4905000241822802601
:105290004FF48053ADF804008DF80610284601A99C
:1052A0008DF807200C930794089609940A940D949E
:1052B0004FF4406700F088FF482301A928468DF885
:1052C0000730ADF8047000F07FFF0E2001258DF847
:1052D000080002A88DF809508DF80A408DF80B508F
:1052E000FEF724FD2F49304F01F5885901F5805212
:1052F00054601460C9F80C40B868C9F808402B4FD6
:10530000FBF7A6FEFFF7A4FF384600F0BFFBDFF86F
:10531000A0A020214FF48070A9F1F803DFF8948059
:1053200006900B91384603A90493CDF80CA0059480
:105330000794099408960A9400F04CFC38462946D4
:1053400000F0F4FC40212A46404602F059FB384662
:1053500000F07CFD143FC9F81000384600F096FBC1
:105360001022384603A90592CDF80CA007940994A1
:1053700008960A940B9400F02DFC384602212A4628
:1053800000F018FD404631467C602A4602F038FBAA
:105390004046294602F000FB0EB0BDE8F08700BF92
:1053A0000008014010100020300600205800024084
:1053B000043801400038014008B54FF4005000F0B7
:1053C00079FD0021054800F0B1FC054B0CCB9A4259
:1053D00003D0BDE80840FFF7E3BE08BD440002402B
:1053E0001020002070B50E4C0E4EA068FBF730FE6A
:1053F000FBF714FC31460546FBF702FE38B90A4EAE
:1054000028463146FBF71AFE08B9A56000E0A66001
:10541000034B9868FBF71CFEBDE87040FFF718BF10
:1054200030060020000016460000614938B5474BA1
:10543000054698420C460BD003F58060854207D0A4
:1054400000F5A0518D4203D04148DF21FEF714FC46
:105450002268F2B1B2F5803F1BD0B2F5003F18D000
:10546000B2F5403F15D0B2F5802F12D0B2F5A02F83
:105470000FD0B2F5C02F0CD0B2F5E02F09D0B2F5A5
:10548000002F06D0B2F5102F03D03148E021FEF7EF
:10549000F3FB2379012B03D92D48E121FEF7ECFB27
:1054A0006079012803D92A48E221FEF7E5FBA168CB
:1054B000C1B1B1F5003F15D0B1F5802F12D0B1F5D3
:1054C000C02F0FD0B1F5002F0CD0B1F5202F09D08F
:1054D000B1F5402F06D0B1F5602F03D01C48E32171
:1054E000FEF7CAFBE26832B1B2F5006F03D018488C
:1054F000E421FEF7C1FB237C581E0F2803D9144872
:10550000E521FEF7B9FB6968236821F4702222F4D3
:105510008070227940EA030141EA02206860A968AC
:10552000E368A2680B481A43084042EA0001627926
:1055300041EA4203AB60227CE86A531E20F470010A
:10554000D8B241EA0051E96238BD00BF00240140F1
:105550008DE00008FDF7F1FF38B5124B0446984284
:105560000D460CD003F58060844208D000F5A051B0
:105570008C4204D00C484FF49771FEF77DFB012D4F
:1055800005D9094840F22F11FEF776FB00E01DB166
:10559000A06840F0010302E0A26822F00103A360CA
:1055A00038BD00BF002401408DE0000838B5104B25
:1055B000044698420D4608D003F5C050844204D0FA
:1055C0000C4840F24711FEF757FB012D05D9094859
:1055D0004FF4A471FEF750FB00E01DB1A36843F443
:1055E000807202E0A16821F48072A26038BD00BF21
:1055F000002401408DE000080B4B10B59842044692
:105600000CD003F58060844208D000F5A0518C4294
:1056100004D006484FF4BF71FEF72EFBA26842F09B
:105620000803A36010BD00BF002401408DE0000806
:105630000A4B10B5984204460CD003F580608442B2
:1056400008D000F5A0518C4204D005484FF4C67133
:10565000FEF712FBA268C2F3C00010BD0024014097
:105660008DE000080B4B10B5984204460CD003F5B2
:105670008060844208D000F5A0518C4204D00648D6
:105680004FF4D271FEF7F8FAA26842F00403A36067
:1056900010BD00BF002401408DE000080A4B10B58A
:1056A000984204460CD003F58060844208D000F58F
:1056B000A0518C4204D005484FF4D971FEF7DCFAB2
:1056C000A268C2F3800010BD002401408DE00008F4
:1056D00038B5124B044698420D460CD003F5806055
:1056E000844208D000F5A0518C4204D00C484FF4FD
:1056F000E671FEF7C1FA012D05D9094840F2CD1136
:10570000FEF7BAFA00E01DB1A06840F4A00302E081
:10571000A26822F4A003A36038BD00BF00240140AA
:105720008DE00008F8B51F463B4B044698420D46F5
:1057300016460CD003F58060844208D000F5A051D5
:105740008C4204D0354840F25221FEF795FA112DD3
:1057500004D9324840F25321FEF78EFA721E0F2A06
:1057600004D92E484FF41571FEF786FA072F04D995
:105770002A4840F25521FEF77FFA092D4FF0030326
:105780000DD96B4307211E3B01FA03F107FA03F71A
:10579000E06820EA010242EA0703E3600BE06B43A2
:1057A000072101FA03F107FA03F7206920EA010251
:1057B00042EA07032361062E4FF005000DD8013E93
:1057C00070431F2202FA00F205FA00F3616B21EA2E
:1057D000020141EA03006063F8BD0C2E0DD870434E
:1057E0001F22233802FA00F205FA00F5216B21EAA4
:1057F000020343EA05002063F8BD70431F224138CD
:1058000002FA00F205FA00F5E16A21EA020343EA2E
:105810000500E062F8BD00BF002401408DE00008F3
:1058200038B5124B044698420D460CD003F5806003
:10583000844208D000F5A0518C4204D00C4840F2BC
:10584000B121FEF719FA012D05D9094840F2B2211C
:10585000FEF712FA00E01DB1A06840F4801302E0E8
:10586000A26822F48013A36038BD00BF0024014069
:105870008DE0000838B5194B054698420C460CD00F
:1058800003F58060854208D000F5A0518D4204D018
:10589000134840F22331FEF7EFF9CCB1B4F5805F45
:1058A00016D0B4F5005F13D0B4F5405F10D0B4F556
:1058B000804F0DD0B4F5A04F0AD0B4F5C04F07D03B
:1058C000B4F5E04F04D006484FF44971FEF7D4F91F
:1058D000AA6822F4E0431C43AC6038BD00240140B8
:1058E0008DE0000838B5124B044698420D460CD0A6
:1058F00003F58060844208D000F5A0518C4204D0AA
:105900000C4840F23B31FEF7B7F9012D05D90948A3
:105910004FF44F71FEF7B0F900E01DB1A06840F4FC
:10592000004302E0A26822F40043A36038BD00BF38
:10593000002401408DE00008F8B51E462C4B0446BB
:1059400098420D4617460CD003F58060844208D07B
:1059500000F5A0518C4204D0264840F2A631FEF753
:105960008BF9112D04D9234840F2A731FEF784F9B1
:105970007A1E032A04D91F484FF46A71FEF77CF996
:10598000072E04D91B4840F2A931FEF775F9092DFD
:105990004FF003030DD96B4307211E3B01FA03F1BE
:1059A00006FA03F6E06820EA010242EA0603E36031
:1059B0000BE06B43072101FA03F106FA03F62069B5
:1059C00020EA010242EA06032361A06B0523C0F32B
:1059D00001517F1ABA1CD7B25F431F2101FA07F1A8
:1059E00005FA07F520EA01002843A063F8BD00BFCF
:1059F000002401408DE0000838B5114B0446984260
:105A00000D460CD003F58060844208D000F5A0510B
:105A10008C4204D00B4840F2E631FEF72DF96A1EA5
:105A2000032A04D9074840F2E731FEF725F9A36BB2
:105A3000013D23F4401040EA0555A56338BD00BF81
:105A4000002401408DE000080D4B70B50340054671
:105A50000E4603B918B90B488921FEF70DF9012E3E
:105A6000094C04D907488A21FEF706F900E016B16F
:105A700061680D4302E0606820EA0505656070BD5D
:105A8000F8000080A4E00008002004E0444B10B5BA
:105A90009842044625D01433984222D014339842B9
:105AA0001FD0143398421CD01433984219D01433A9
:105AB000984216D01433984213D003F56270844292
:105AC0000FD0143084420CD01430844209D01430EA
:105AD000844206D01430844203D032486F21FEF74E
